{
  "_format": "hh-sol-artifact-1",
  "contractName": "QrCode",
  "sourceName": "contracts/QrCode.sol",
  "abi": [
    {
      "inputs": [
        {
          "internalType": "address",
          "name": "_owner",
          "type": "address"
        }
      ],
      "stateMutability": "nonpayable",
      "type": "constructor"
    },
    {
      "anonymous": false,
      "inputs": [
        {
          "indexed": true,
          "internalType": "uint256",
          "name": "productId",
          "type": "uint256"
        }
      ],
      "name": "DeletedItem",
      "type": "event"
    },
    {
      "anonymous": false,
      "inputs": [
        {
          "indexed": true,
          "internalType": "uint256",
          "name": "productId",
          "type": "uint256"
        }
      ],
      "name": "ItemSold",
      "type": "event"
    },
    {
      "anonymous": false,
      "inputs": [
        {
          "indexed": true,
          "internalType": "uint256",
          "name": "batchNumber",
          "type": "uint256"
        },
        {
          "indexed": true,
          "internalType": "uint256",
          "name": "productId",
          "type": "uint256"
        }
      ],
      "name": "ItemStored",
      "type": "event"
    },
    {
      "anonymous": false,
      "inputs": [
        {
          "indexed": true,
          "internalType": "address",
          "name": "manufacturer",
          "type": "address"
        }
      ],
      "name": "ManufacturerAdded",
      "type": "event"
    },
    {
      "anonymous": false,
      "inputs": [
        {
          "indexed": true,
          "internalType": "address",
          "name": "manufacturer",
          "type": "address"
        },
        {
          "indexed": true,
          "internalType": "address",
          "name": "retailer",
          "type": "address"
        }
      ],
      "name": "RetailerAdded",
      "type": "event"
    },
    {
      "inputs": [
        {
          "internalType": "address",
          "name": "manufacturer",
          "type": "address"
        }
      ],
      "name": "addManufacturer",
      "outputs": [],
      "stateMutability": "nonpayable",
      "type": "function"
    },
    {
      "inputs": [
        {
          "internalType": "address",
          "name": "_retailer",
          "type": "address"
        }
      ],
      "name": "addRetailer",
      "outputs": [],
      "stateMutability": "nonpayable",
      "type": "function"
    },
    {
      "inputs": [
        {
          "internalType": "uint256",
          "name": "productId",
          "type": "uint256"
        },
        {
          "internalType": "uint256",
          "name": "batchNumber",
          "type": "uint256"
        },
        {
          "internalType": "address",
          "name": "manufacturer",
          "type": "address"
        }
      ],
      "name": "checkProductLegitimacy",
      "outputs": [
        {
          "internalType": "bool",
          "name": "",
          "type": "bool"
        }
      ],
      "stateMutability": "view",
      "type": "function"
    },
    {
      "inputs": [
        {
          "internalType": "uint256",
          "name": "_productId",
          "type": "uint256"
        }
      ],
      "name": "deleteStoredItem",
      "outputs": [],
      "stateMutability": "nonpayable",
      "type": "function"
    },
    {
      "inputs": [
        {
          "internalType": "uint256",
          "name": "productId",
          "type": "uint256"
        }
      ],
      "name": "getProductDetails",
      "outputs": [
        {
          "internalType": "uint256",
          "name": "batchNumber",
          "type": "uint256"
        },
        {
          "internalType": "address",
          "name": "manufacturer",
          "type": "address"
        }
      ],
      "stateMutability": "view",
      "type": "function"
    },
    {
      "inputs": [],
      "name": "i_systemOwner",
      "outputs": [
        {
          "internalType": "address",
          "name": "",
          "type": "address"
        }
      ],
      "stateMutability": "view",
      "type": "function"
    },
    {
      "inputs": [
        {
          "internalType": "address",
          "name": "user",
          "type": "address"
        }
      ],
      "name": "isManufacturer",
      "outputs": [
        {
          "internalType": "bool",
          "name": "",
          "type": "bool"
        }
      ],
      "stateMutability": "view",
      "type": "function"
    },
    {
      "inputs": [
        {
          "internalType": "address",
          "name": "user",
          "type": "address"
        }
      ],
      "name": "isOwner",
      "outputs": [
        {
          "internalType": "bool",
          "name": "",
          "type": "bool"
        }
      ],
      "stateMutability": "view",
      "type": "function"
    },
    {
      "inputs": [
        {
          "internalType": "address",
          "name": "user",
          "type": "address"
        }
      ],
      "name": "isRetailer",
      "outputs": [
        {
          "internalType": "bool",
          "name": "",
          "type": "bool"
        }
      ],
      "stateMutability": "view",
      "type": "function"
    },
    {
      "inputs": [
        {
          "internalType": "uint256",
          "name": "",
          "type": "uint256"
        }
      ],
      "name": "isStored",
      "outputs": [
        {
          "internalType": "bool",
          "name": "",
          "type": "bool"
        }
      ],
      "stateMutability": "view",
      "type": "function"
    },
    {
      "inputs": [
        {
          "internalType": "uint256",
          "name": "_productId",
          "type": "uint256"
        }
      ],
      "name": "itemIsSold",
      "outputs": [
        {
          "internalType": "uint256",
          "name": "",
          "type": "uint256"
        },
        {
          "internalType": "bool",
          "name": "",
          "type": "bool"
        }
      ],
      "stateMutability": "nonpayable",
      "type": "function"
    },
    {
      "inputs": [
        {
          "internalType": "address",
          "name": "",
          "type": "address"
        }
      ],
      "name": "retailers",
      "outputs": [
        {
          "internalType": "bool",
          "name": "",
          "type": "bool"
        }
      ],
      "stateMutability": "view",
      "type": "function"
    },
    {
      "inputs": [
        {
          "internalType": "uint256",
          "name": "_productId",
          "type": "uint256"
        }
      ],
      "name": "scanItem",
      "outputs": [
        {
          "internalType": "bool",
          "name": "",
          "type": "bool"
        },
        {
          "internalType": "uint256",
          "name": "",
          "type": "uint256"
        },
        {
          "internalType": "address",
          "name": "",
          "type": "address"
        },
        {
          "internalType": "bool",
          "name": "",
          "type": "bool"
        }
      ],
      "stateMutability": "view",
      "type": "function"
    },
    {
      "inputs": [
        {
          "internalType": "uint256",
          "name": "_batchNumber",
          "type": "uint256"
        },
        {
          "internalType": "uint256",
          "name": "_productId",
          "type": "uint256"
        }
      ],
      "name": "storeItem",
      "outputs": [],
      "stateMutability": "nonpayable",
      "type": "function"
    }
  ],
  "bytecode": "0x60a06040523480156200001157600080fd5b50604051620014e5380380620014e58339818101604052810190620000379190620000dc565b8073ffffffffffffffffffffffffffffffffffffffff1660808173ffffffffffffffffffffffffffffffffffffffff1681525050506200010e565b600080fd5b600073ffffffffffffffffffffffffffffffffffffffff82169050919050565b6000620000a48262000077565b9050919050565b620000b68162000097565b8114620000c257600080fd5b50565b600081519050620000d681620000ab565b92915050565b600060208284031215620000f557620000f462000072565b5b60006200010584828501620000c5565b91505092915050565b6080516113ad6200013860003960008181610513015281816107190152610e5001526113ad6000f3fe608060405234801561001057600080fd5b50600436106100ea5760003560e01c80638d5603131161008c5780639a268f35116100665780639a268f3514610295578063a0848828146102c5578063b4dbfc4d146102e1578063eac39de114610314576100ea565b80638d560313146102195780638ec4f5051461024957806397e6798614610265576100ea565b806357dde956116100c857806357dde9561461016b5780635da09b881461019c5780635f8a5afa146101cc5780636813b53b146101e8576100ea565b80631782976e146100ef57806317d4a4911461010b5780632f54bf6e1461013b575b600080fd5b61010960048036038101906101049190610ead565b610332565b005b61012560048036038101906101209190610f4b565b6104b9565b6040516101329190610f93565b60405180910390f35b61015560048036038101906101509190610f4b565b61050f565b6040516101629190610f93565b60405180910390f35b61018560048036038101906101809190610fae565b610567565b604051610193929190610fea565b60405180910390f35b6101b660048036038101906101b19190610f4b565b6106c1565b6040516101c39190610f93565b60405180910390f35b6101e660048036038101906101e19190610f4b565b610717565b005b61020260048036038101906101fd9190610fae565b610842565b604051610210929190611022565b60405180910390f35b610233600480360381019061022e9190610fae565b610982565b6040516102409190610f93565b60405180910390f35b610263600480360381019061025e9190610f4b565b6109a2565b005b61027f600480360381019061027a919061104b565b610b78565b60405161028c9190610f93565b60405180910390f35b6102af60048036038101906102aa9190610f4b565b610c5c565b6040516102bc9190610f93565b60405180910390f35b6102df60048036038101906102da9190610fae565b610c7c565b005b6102fb60048036038101906102f69190610fae565b610d82565b60405161030b949392919061109e565b60405180910390f35b61031c610e4e565b60405161032991906110e3565b60405180910390f35b600160003373ffffffffffffffffffffffffffffffffffffffff1673ffffffffffffffffffffffffffffffffffffffff16815260200190815260200160002060009054906101000a900460ff166103be576040517f08c379a00000000000000000000000000000000000000000000000000000000081526004016103b590611181565b60405180910390fd5b336004600084815260200190815260200160002060006101000a81548173ffffffffffffffffffffffffffffffffffffffff021916908373ffffffffffffffffffffffffffffffffffffffff16021790555081600560008381526020019081526020016000208190555060016006600083815260200190815260200160002060006101000a81548160ff02191690831515021790555060006007600083815260200190815260200160002060006101000a81548160ff02191690831515021790555080827fc71981e9965f9589d940b5fe5b866131b3a2dfe8ecec7439a414da6785f707ea60405160405180910390a3426000819055505050565b6000600160008373ffffffffffffffffffffffffffffffffffffffff1673ffffffffffffffffffffffffffffffffffffffff16815260200190815260200160002060009054906101000a900460ff169050919050565b60007f000000000000000000000000000000000000000000000000000000000000000073ffffffffffffffffffffffffffffffffffffffff168273ffffffffffffffffffffffffffffffffffffffff16149050919050565b600080600360003373ffffffffffffffffffffffffffffffffffffffff1673ffffffffffffffffffffffffffffffffffffffff16815260200190815260200160002060009054906101000a900460ff166105f6576040517f08c379a00000000000000000000000000000000000000000000000000000000081526004016105ed90611213565b60405180910390fd5b6006600084815260200190815260200160002060009054906101000a900460ff16801561064157506007600084815260200190815260200160002060009054906101000a900460ff16155b156106b45760016007600085815260200190815260200160002060006101000a81548160ff021916908315150217905550827fadf6d10d44a697fd240c9a1ef648f41cd3fdb3d0381c241842dcd46b3dfbd04160405160405180910390a2426000819055506000546001915091506106bc565b600080915091505b915091565b6000600360008373ffffffffffffffffffffffffffffffffffffffff1673ffffffffffffffffffffffffffffffffffffffff16815260200190815260200160002060009054906101000a900460ff169050919050565b7f000000000000000000000000000000000000000000000000000000000000000073ffffffffffffffffffffffffffffffffffffffff163373ffffffffffffffffffffffffffffffffffffffff16146107a5576040517f08c379a000000000000000000000000000000000000000000000000000000000815260040161079c9061127f565b60405180910390fd5b60018060008373ffffffffffffffffffffffffffffffffffffffff1673ffffffffffffffffffffffffffffffffffffffff16815260200190815260200160002060006101000a81548160ff0219169083151502179055508073ffffffffffffffffffffffffffffffffffffffff167f561138658ca49a8540dc70dcfe64c9026c1c5b9344642242dd6562970f9c127860405160405180910390a250565b600080600360003373ffffffffffffffffffffffffffffffffffffffff1673ffffffffffffffffffffffffffffffffffffffff16815260200190815260200160002060009054906101000a900460ff166108d1576040517f08c379a00000000000000000000000000000000000000000000000000000000081526004016108c8906112eb565b60405180910390fd5b6006600084815260200190815260200160002060009054906101000a900460ff16610931576040517f08c379a000000000000000000000000000000000000000000000000000000000815260040161092890611357565b60405180910390fd5b600560008481526020019081526020016000205491506004600083815260200190815260200160002060009054906101000a900473ffffffffffffffffffffffffffffffffffffffff169050915091565b60066020528060005260406000206000915054906101000a900460ff1681565b600160003373ffffffffffffffffffffffffffffffffffffffff1673ffffffffffffffffffffffffffffffffffffffff16815260200190815260200160002060009054906101000a900460ff16610a2e576040517f08c379a0000000000000000000000000000000000000000000000000000000008152600401610a2590611181565b60405180910390fd5b6001600260003373ffffffffffffffffffffffffffffffffffffffff1673ffffffffffffffffffffffffffffffffffffffff16815260200190815260200160002060008373ffffffffffffffffffffffffffffffffffffffff1673ffffffffffffffffffffffffffffffffffffffff16815260200190815260200160002060006101000a81548160ff0219169083151502179055506001600360008373ffffffffffffffffffffffffffffffffffffffff1673ffffffffffffffffffffffffffffffffffffffff16815260200190815260200160002060006101000a81548160ff0219169083151502179055508073ffffffffffffffffffffffffffffffffffffffff163373ffffffffffffffffffffffffffffffffffffffff167fbcff4ecf70d240ecd298cd1340249732686c48de5225a8a124102c61fea08d4f60405160405180910390a350565b60006006600085815260200190815260200160002060009054906101000a900460ff161580610bc457506007600085815260200190815260200160002060009054906101000a900460ff165b15610bd25760009050610c55565b826005600086815260200190815260200160002054148015610c5257508173ffffffffffffffffffffffffffffffffffffffff166004600085815260200190815260200160002060009054906101000a900473ffffffffffffffffffffffffffffffffffffffff1673ffffffffffffffffffffffffffffffffffffffff16145b90505b9392505050565b60036020528060005260406000206000915054906101000a900460ff1681565b600160003373ffffffffffffffffffffffffffffffffffffffff1673ffffffffffffffffffffffffffffffffffffffff16815260200190815260200160002060009054906101000a900460ff16610d08576040517f08c379a0000000000000000000000000000000000000000000000000000000008152600401610cff90611181565b60405180910390fd5b600560008281526020019081526020016000206000905560006006600083815260200190815260200160002060006101000a81548160ff021916908315150217905550807fdbb0cb4302e433d3fdb23b6960e8145f8c95d1cf71f569c5650e5e4302606e0960405160405180910390a24260008190555050565b6000806000806006600086815260200190815260200160002060009054906101000a900460ff1615610e385760006005600087815260200190815260200160002054905060006004600083815260200190815260200160002060009054906101000a900473ffffffffffffffffffffffffffffffffffffffff16905060006007600089815260200190815260200160002060009054906101000a900460ff16905060018383839650965096509650505050610e47565b60008060008093509350935093505b9193509193565b7f000000000000000000000000000000000000000000000000000000000000000081565b600080fd5b6000819050919050565b610e8a81610e77565b8114610e9557600080fd5b50565b600081359050610ea781610e81565b92915050565b60008060408385031215610ec457610ec3610e72565b5b6000610ed285828601610e98565b9250506020610ee385828601610e98565b9150509250929050565b600073ffffffffffffffffffffffffffffffffffffffff82169050919050565b6000610f1882610eed565b9050919050565b610f2881610f0d565b8114610f3357600080fd5b50565b600081359050610f4581610f1f565b92915050565b600060208284031215610f6157610f60610e72565b5b6000610f6f84828501610f36565b91505092915050565b60008115159050919050565b610f8d81610f78565b82525050565b6000602082019050610fa86000830184610f84565b92915050565b600060208284031215610fc457610fc3610e72565b5b6000610fd284828501610e98565b91505092915050565b610fe481610e77565b82525050565b6000604082019050610fff6000830185610fdb565b61100c6020830184610f84565b9392505050565b61101c81610f0d565b82525050565b60006040820190506110376000830185610fdb565b6110446020830184611013565b9392505050565b60008060006060848603121561106457611063610e72565b5b600061107286828701610e98565b935050602061108386828701610e98565b925050604061109486828701610f36565b9150509250925092565b60006080820190506110b36000830187610f84565b6110c06020830186610fdb565b6110cd6040830185611013565b6110da6060830184610f84565b95945050505050565b60006020820190506110f86000830184611013565b92915050565b600082825260208201905092915050565b7f416374696f6e206f6e6c792074616b656e20627920612076657269666965642060008201527f6d616e7566616374757265720000000000000000000000000000000000000000602082015250565b600061116b602c836110fe565b91506111768261110f565b604082019050919050565b6000602082019050818103600083015261119a8161115e565b9050919050565b7f416374696f6e206f6e6c792074616b656e20627920612076657269666965642060008201527f72657461696c6572000000000000000000000000000000000000000000000000602082015250565b60006111fd6028836110fe565b9150611208826111a1565b604082019050919050565b6000602082019050818103600083015261122c816111f0565b9050919050565b7f416374696f6e206f6e6c792074616b656e206279206f776e6572000000000000600082015250565b6000611269601a836110fe565b915061127482611233565b602082019050919050565b600060208201905081810360008301526112988161125c565b9050919050565b7f43616c6c6572206973206e6f7420612072657461696c65720000000000000000600082015250565b60006112d56018836110fe565b91506112e08261129f565b602082019050919050565b60006020820190508181036000830152611304816112c8565b9050919050565b7f50726f64756374206e6f742073746f7265640000000000000000000000000000600082015250565b60006113416012836110fe565b915061134c8261130b565b602082019050919050565b6000602082019050818103600083015261137081611334565b905091905056fea2646970667358221220db9bd2008580a38355ef6483863b9ce263ba9b013f5c70075742adaa56934e7264736f6c63430008130033",
  "linkReferences": {},
  "deployedLinkReferences": {}
}